{
  "contractName": "MortgageContract",
  "abi": [
    {
      "inputs": [],
      "stateMutability": "nonpayable",
      "type": "constructor"
    },
    {
      "anonymous": false,
      "inputs": [
        {
          "indexed": true,
          "internalType": "address",
          "name": "owner",
          "type": "address"
        },
        {
          "indexed": true,
          "internalType": "uint256",
          "name": "owerUsdtAmount",
          "type": "uint256"
        }
      ],
      "name": "ContractApproved",
      "type": "event"
    },
    {
      "anonymous": false,
      "inputs": [
        {
          "indexed": true,
          "internalType": "address",
          "name": "owner",
          "type": "address"
        },
        {
          "indexed": true,
          "internalType": "address",
          "name": "thirdPartyPlatform",
          "type": "address"
        },
        {
          "indexed": true,
          "internalType": "string",
          "name": "requirementAndAmount",
          "type": "string"
        }
      ],
      "name": "ContractInitiated",
      "type": "event"
    },
    {
      "anonymous": false,
      "inputs": [
        {
          "indexed": true,
          "internalType": "address",
          "name": "escrowLeader",
          "type": "address"
        },
        {
          "indexed": true,
          "internalType": "address",
          "name": "escrowOwner",
          "type": "address"
        }
      ],
      "name": "Escrowed",
      "type": "event"
    },
    {
      "anonymous": false,
      "inputs": [
        {
          "indexed": true,
          "internalType": "address",
          "name": "leader",
          "type": "address"
        }
      ],
      "name": "Signed",
      "type": "event"
    },
    {
      "anonymous": false,
      "inputs": [
        {
          "indexed": true,
          "internalType": "address",
          "name": "from",
          "type": "address"
        },
        {
          "indexed": true,
          "internalType": "address",
          "name": "to",
          "type": "address"
        },
        {
          "indexed": false,
          "internalType": "uint256",
          "name": "amount",
          "type": "uint256"
        }
      ],
      "name": "Transfer",
      "type": "event"
    },
    {
      "inputs": [],
      "name": "collateralTransferred",
      "outputs": [
        {
          "internalType": "bool",
          "name": "",
          "type": "bool"
        }
      ],
      "stateMutability": "view",
      "type": "function",
      "constant": true
    },
    {
      "inputs": [],
      "name": "contractInitiated",
      "outputs": [
        {
          "internalType": "bool",
          "name": "",
          "type": "bool"
        }
      ],
      "stateMutability": "view",
      "type": "function",
      "constant": true
    },
    {
      "inputs": [],
      "name": "expirationTime",
      "outputs": [
        {
          "internalType": "uint256",
          "name": "",
          "type": "uint256"
        }
      ],
      "stateMutability": "view",
      "type": "function",
      "constant": true
    },
    {
      "inputs": [],
      "name": "leader",
      "outputs": [
        {
          "internalType": "address",
          "name": "",
          "type": "address"
        }
      ],
      "stateMutability": "view",
      "type": "function",
      "constant": true
    },
    {
      "inputs": [
        {
          "internalType": "address",
          "name": "",
          "type": "address"
        }
      ],
      "name": "leaderBalance",
      "outputs": [
        {
          "internalType": "uint256",
          "name": "",
          "type": "uint256"
        }
      ],
      "stateMutability": "view",
      "type": "function",
      "constant": true
    },
    {
      "inputs": [],
      "name": "leaderSigned",
      "outputs": [
        {
          "internalType": "bool",
          "name": "",
          "type": "bool"
        }
      ],
      "stateMutability": "view",
      "type": "function",
      "constant": true
    },
    {
      "inputs": [],
      "name": "leaderUsdtAmount",
      "outputs": [
        {
          "internalType": "uint256",
          "name": "",
          "type": "uint256"
        }
      ],
      "stateMutability": "view",
      "type": "function",
      "constant": true
    },
    {
      "inputs": [],
      "name": "owerUsdtAmount",
      "outputs": [
        {
          "internalType": "uint256",
          "name": "",
          "type": "uint256"
        }
      ],
      "stateMutability": "view",
      "type": "function",
      "constant": true
    },
    {
      "inputs": [],
      "name": "owner",
      "outputs": [
        {
          "internalType": "address",
          "name": "",
          "type": "address"
        }
      ],
      "stateMutability": "view",
      "type": "function",
      "constant": true
    },
    {
      "inputs": [],
      "name": "ownerAgreed",
      "outputs": [
        {
          "internalType": "bool",
          "name": "",
          "type": "bool"
        }
      ],
      "stateMutability": "view",
      "type": "function",
      "constant": true
    },
    {
      "inputs": [
        {
          "internalType": "address",
          "name": "",
          "type": "address"
        }
      ],
      "name": "ownerBalance",
      "outputs": [
        {
          "internalType": "uint256",
          "name": "",
          "type": "uint256"
        }
      ],
      "stateMutability": "view",
      "type": "function",
      "constant": true
    },
    {
      "inputs": [],
      "name": "requirement",
      "outputs": [
        {
          "internalType": "string",
          "name": "",
          "type": "string"
        }
      ],
      "stateMutability": "view",
      "type": "function",
      "constant": true
    },
    {
      "inputs": [],
      "name": "thirdPartyPlatform",
      "outputs": [
        {
          "internalType": "address",
          "name": "",
          "type": "address"
        }
      ],
      "stateMutability": "view",
      "type": "function",
      "constant": true
    },
    {
      "inputs": [
        {
          "internalType": "address",
          "name": "",
          "type": "address"
        }
      ],
      "name": "thirdPartyPlatformBalance",
      "outputs": [
        {
          "internalType": "uint256",
          "name": "",
          "type": "uint256"
        }
      ],
      "stateMutability": "view",
      "type": "function",
      "constant": true
    },
    {
      "inputs": [
        {
          "internalType": "address",
          "name": "_owner",
          "type": "address"
        },
        {
          "internalType": "string",
          "name": "_requirement",
          "type": "string"
        },
        {
          "internalType": "uint256",
          "name": "_owerUsdtAmount",
          "type": "uint256"
        },
        {
          "internalType": "uint256",
          "name": "_expirationTime",
          "type": "uint256"
        }
      ],
      "name": "initiateContract",
      "outputs": [
        {
          "internalType": "string",
          "name": "",
          "type": "string"
        }
      ],
      "stateMutability": "payable",
      "type": "function",
      "payable": true
    },
    {
      "inputs": [
        {
          "internalType": "bool",
          "name": "_isOnwerAgreed",
          "type": "bool"
        },
        {
          "internalType": "address payable",
          "name": "_thirdPartyPlatform",
          "type": "address"
        }
      ],
      "name": "transferCollateralToThridPartyPlatform",
      "outputs": [
        {
          "internalType": "bool",
          "name": "",
          "type": "bool"
        }
      ],
      "stateMutability": "payable",
      "type": "function",
      "payable": true
    },
    {
      "inputs": [
        {
          "internalType": "bool",
          "name": "_isLeaderAgreed",
          "type": "bool"
        },
        {
          "internalType": "address",
          "name": "_leader",
          "type": "address"
        }
      ],
      "name": "requestLeaderSignature",
      "outputs": [],
      "stateMutability": "nonpayable",
      "type": "function"
    }
  ],
  "bytecode": "0x608060405234801561001057600080fd5b5033600160006101000a81548173ffffffffffffffffffffffffffffffffffffffff021916908373ffffffffffffffffffffffffffffffffffffffff1602179055506000600560006101000a81548160ff0219169083151502179055506000600560016101000a81548160ff0219169083151502179055506000600560026101000a81548160ff0219169083151502179055506000600560036101000a81548160ff021916908315150217905550611a95806100cd6000396000f3fe6080604052600436106100fe5760003560e01c8063adab469411610095578063da284dcc11610064578063da284dcc14610342578063e30b6a3d1461036d578063f2fd63431461039d578063f377b916146103c8578063f8750479146103f3576100fe565b8063adab469414610272578063af90fdfd1461029d578063b32e531e146102da578063b756393014610317576100fe565b806340eedabb116100d157806340eedabb146101c65780638da5cb5b146101f157806390e3fad51461021c578063a150186f14610247576100fe565b80630b3ec6e414610103578063257e5912146101335780632832d4aa1461017057806340b274a21461019b575b600080fd5b61011d60048036038101906101189190610fce565b61041c565b60405161012a919061101d565b60405180910390f35b34801561013f57600080fd5b5061015a60048036038101906101559190611076565b610592565b60405161016791906110bc565b60405180910390f35b34801561017c57600080fd5b506101856105aa565b60405161019291906110bc565b60405180910390f35b3480156101a757600080fd5b506101b06105b0565b6040516101bd919061101d565b60405180910390f35b3480156101d257600080fd5b506101db6105c3565b6040516101e891906110e6565b60405180910390f35b3480156101fd57600080fd5b506102066105e9565b60405161021391906110e6565b60405180910390f35b34801561022857600080fd5b5061023161060d565b60405161023e919061101d565b60405180910390f35b34801561025357600080fd5b5061025c610620565b604051610269919061101d565b60405180910390f35b34801561027e57600080fd5b50610287610633565b60405161029491906110e6565b60405180910390f35b3480156102a957600080fd5b506102c460048036038101906102bf9190611076565b610659565b6040516102d191906110bc565b60405180910390f35b3480156102e657600080fd5b5061030160048036038101906102fc9190611076565b610671565b60405161030e91906110bc565b60405180910390f35b34801561032357600080fd5b5061032c610689565b604051610339919061119a565b60405180910390f35b34801561034e57600080fd5b50610357610717565b60405161036491906110bc565b60405180910390f35b6103876004803603810190610382919061131d565b61071d565b604051610394919061119a565b60405180910390f35b3480156103a957600080fd5b506103b26109e5565b6040516103bf91906110bc565b60405180910390f35b3480156103d457600080fd5b506103dd6109eb565b6040516103ea919061101d565b60405180910390f35b3480156103ff57600080fd5b5061041a600480360381019061041591906113a0565b6109fe565b005b60008261045e576040517f08c379a00000000000000000000000000000000000000000000000000000000081526004016104559061142c565b60405180910390fd5b82600560016101000a81548160ff0219169083151502179055508173ffffffffffffffffffffffffffffffffffffffff163373ffffffffffffffffffffffffffffffffffffffff167fddf252ad1be2c89b69c2b068fc378daa952ba7f163c4a11628f55a4df523b3ef346040516104d591906110bc565b60405180910390a38173ffffffffffffffffffffffffffffffffffffffff166108fc349081150290604051600060405180830381858888f19350505050158015610523573d6000803e3d6000fd5b503460008054906101000a900473ffffffffffffffffffffffffffffffffffffffff1673ffffffffffffffffffffffffffffffffffffffff167f5f327dfbc26b4773c8990edbc20356f43975e2a38466359fad3bd2b77dee243360405160405180910390a36001905092915050565b60096020528060005260406000206000915090505481565b60035481565b600560009054906101000a900460ff1681565b600260009054906101000a900473ffffffffffffffffffffffffffffffffffffffff1681565b60008054906101000a900473ffffffffffffffffffffffffffffffffffffffff1681565b600560029054906101000a900460ff1681565b600560039054906101000a900460ff1681565b600160009054906101000a900473ffffffffffffffffffffffffffffffffffffffff1681565b60086020528060005260406000206000915090505481565b600a6020528060005260406000206000915090505481565b600680546106969061147b565b80601f01602080910402602001604051908101604052809291908181526020018280546106c29061147b565b801561070f5780601f106106e45761010080835404028352916020019161070f565b820191906000526020600020905b8154815290600101906020018083116106f257829003601f168201915b505050505081565b60075481565b6060600160009054906101000a900473ffffffffffffffffffffffffffffffffffffffff1673ffffffffffffffffffffffffffffffffffffffff163373ffffffffffffffffffffffffffffffffffffffff16146107af576040517f08c379a00000000000000000000000000000000000000000000000000000000081526004016107a69061151e565b60405180910390fd5b600560009054906101000a900460ff16156107ff576040517f08c379a00000000000000000000000000000000000000000000000000000000081526004016107f6906115b0565b60405180910390fd5b8360069080519060200190610815929190610e81565b508160078190555082600381905550846000806101000a81548173ffffffffffffffffffffffffffffffffffffffff021916908373ffffffffffffffffffffffffffffffffffffffff1602179055506000600660405160200161087891906116bb565b6040516020818303038152906040529050600060035460405160200161089e919061174a565b6040516020818303038152906040529050600082826040516020016108c49291906117a1565b6040516020818303038152906040529050806040516108e391906117c5565b6040518091039020600160009054906101000a900473ffffffffffffffffffffffffffffffffffffffff1673ffffffffffffffffffffffffffffffffffffffff1660008054906101000a900473ffffffffffffffffffffffffffffffffffffffff1673ffffffffffffffffffffffffffffffffffffffff167f134eda9b6ac316900e429ad28ffb580199cb6c97999862ac7326acfba78ed47960405160405180910390a46001600560006101000a81548160ff0219169083151502179055506040518060400160405280601181526020017f696e69746961746520636f6e74726163740000000000000000000000000000008152509350505050949350505050565b60045481565b600560019054906101000a900460ff1681565b600160009054906101000a900473ffffffffffffffffffffffffffffffffffffffff1673ffffffffffffffffffffffffffffffffffffffff163373ffffffffffffffffffffffffffffffffffffffff1614610a8e576040517f08c379a0000000000000000000000000000000000000000000000000000000008152600401610a859061151e565b60405180910390fd5b600560019054906101000a900460ff16610add576040517f08c379a0000000000000000000000000000000000000000000000000000000008152600401610ad49061184e565b60405180910390fd5b600560029054906101000a900460ff1615610b2d576040517f08c379a0000000000000000000000000000000000000000000000000000000008152600401610b24906118ba565b60405180910390fd5b81610b6d576040517f08c379a0000000000000000000000000000000000000000000000000000000008152600401610b6490611926565b60405180910390fd5b80600260006101000a81548173ffffffffffffffffffffffffffffffffffffffff021916908373ffffffffffffffffffffffffffffffffffffffff16021790555081600560026101000a81548160ff0219169083151502179055506002600354610bd791906119a4565b60048190555060008054906101000a900473ffffffffffffffffffffffffffffffffffffffff1673ffffffffffffffffffffffffffffffffffffffff16600260009054906101000a900473ffffffffffffffffffffffffffffffffffffffff1673ffffffffffffffffffffffffffffffffffffffff167f98d29424345df14771f6f9633f8fe3f9576018660b5114690c4da12ad96f827260405160405180910390a3600160009054906101000a900473ffffffffffffffffffffffffffffffffffffffff1673ffffffffffffffffffffffffffffffffffffffff16600260009054906101000a900473ffffffffffffffffffffffffffffffffffffffff1673ffffffffffffffffffffffffffffffffffffffff167fddf252ad1be2c89b69c2b068fc378daa952ba7f163c4a11628f55a4df523b3ef600454604051610d1c91906110bc565b60405180910390a360045460096000600160009054906101000a900473ffffffffffffffffffffffffffffffffffffffff1673ffffffffffffffffffffffffffffffffffffffff1673ffffffffffffffffffffffffffffffffffffffff1681526020019081526020016000206000828254610d9791906119d5565b92505081905550600454600a6000600260009054906101000a900473ffffffffffffffffffffffffffffffffffffffff1673ffffffffffffffffffffffffffffffffffffffff1673ffffffffffffffffffffffffffffffffffffffff1681526020019081526020016000206000828254610e119190611a2b565b92505081905550600260009054906101000a900473ffffffffffffffffffffffffffffffffffffffff1673ffffffffffffffffffffffffffffffffffffffff167f568aebae0f7dc6c96727fb4cdfdf7add45fec43fffd69b3fa71ea0898a27f8cc60405160405180910390a25050565b828054610e8d9061147b565b90600052602060002090601f016020900481019282610eaf5760008555610ef6565b82601f10610ec857805160ff1916838001178555610ef6565b82800160010185558215610ef6579182015b82811115610ef5578251825591602001919060010190610eda565b5b509050610f039190610f07565b5090565b5b80821115610f20576000816000905550600101610f08565b5090565b6000604051905090565b600080fd5b600080fd5b60008115159050919050565b610f4d81610f38565b8114610f5857600080fd5b50565b600081359050610f6a81610f44565b92915050565b600073ffffffffffffffffffffffffffffffffffffffff82169050919050565b6000610f9b82610f70565b9050919050565b610fab81610f90565b8114610fb657600080fd5b50565b600081359050610fc881610fa2565b92915050565b60008060408385031215610fe557610fe4610f2e565b5b6000610ff385828601610f5b565b925050602061100485828601610fb9565b9150509250929050565b61101781610f38565b82525050565b6000602082019050611032600083018461100e565b92915050565b600061104382610f70565b9050919050565b61105381611038565b811461105e57600080fd5b50565b6000813590506110708161104a565b92915050565b60006020828403121561108c5761108b610f2e565b5b600061109a84828501611061565b91505092915050565b6000819050919050565b6110b6816110a3565b82525050565b60006020820190506110d160008301846110ad565b92915050565b6110e081611038565b82525050565b60006020820190506110fb60008301846110d7565b92915050565b600081519050919050565b600082825260208201905092915050565b60005b8381101561113b578082015181840152602081019050611120565b8381111561114a576000848401525b50505050565b6000601f19601f8301169050919050565b600061116c82611101565b611176818561110c565b935061118681856020860161111d565b61118f81611150565b840191505092915050565b600060208201905081810360008301526111b48184611161565b905092915050565b600080fd5b600080fd5b7f4e487b7100000000000000000000000000000000000000000000000000000000600052604160045260246000fd5b6111fe82611150565b810181811067ffffffffffffffff8211171561121d5761121c6111c6565b5b80604052505050565b6000611230610f24565b905061123c82826111f5565b919050565b600067ffffffffffffffff82111561125c5761125b6111c6565b5b61126582611150565b9050602081019050919050565b82818337600083830152505050565b600061129461128f84611241565b611226565b9050828152602081018484840111156112b0576112af6111c1565b5b6112bb848285611272565b509392505050565b600082601f8301126112d8576112d76111bc565b5b81356112e8848260208601611281565b91505092915050565b6112fa816110a3565b811461130557600080fd5b50565b600081359050611317816112f1565b92915050565b6000806000806080858703121561133757611336610f2e565b5b600061134587828801611061565b945050602085013567ffffffffffffffff81111561136657611365610f33565b5b611372878288016112c3565b935050604061138387828801611308565b925050606061139487828801611308565b91505092959194509250565b600080604083850312156113b7576113b6610f2e565b5b60006113c585828601610f5b565b92505060206113d685828601611061565b9150509250929050565b7f4f6e776572206e656564206772616e7465642061636365737320000000000000600082015250565b6000611416601a8361110c565b9150611421826113e0565b602082019050919050565b6000602082019050818103600083015261144581611409565b9050919050565b7f4e487b7100000000000000000000000000000000000000000000000000000000600052602260045260246000fd5b6000600282049050600182168061149357607f821691505b6020821081036114a6576114a561144c565b5b50919050565b7f4f6e6c7920746869726420706172747920706c6174666f726d2063616e20636160008201527f6c6c20746869732066756e6374696f6e00000000000000000000000000000000602082015250565b600061150860308361110c565b9150611513826114ac565b604082019050919050565b60006020820190508181036000830152611537816114fb565b9050919050565b7f436f6e74726163742068617320616c7265616479206265656e20696e6974696160008201527f7465640000000000000000000000000000000000000000000000000000000000602082015250565b600061159a60238361110c565b91506115a58261153e565b604082019050919050565b600060208201905081810360008301526115c98161158d565b9050919050565b600081905092915050565b7f7265617569726d656e74206973203a2000000000000000000000000000000000600082015250565b60006116116010836115d0565b915061161c826115db565b601082019050919050565b60008190508160005260206000209050919050565b600081546116498161147b565b61165381866115d0565b9450600182166000811461166e576001811461167f576116b2565b60ff198316865281860193506116b2565b61168885611627565b60005b838110156116aa5781548189015260018201915060208101905061168b565b838801955050505b50505092915050565b60006116c682611604565b91506116d2828461163c565b915081905092915050565b7f7573647420616d6f756e74206973203a20000000000000000000000000000000600082015250565b60006117136011836115d0565b915061171e826116dd565b601182019050919050565b6000819050919050565b61174461173f826110a3565b611729565b82525050565b600061175582611706565b91506117618284611733565b60208201915081905092915050565b600061177b82611101565b61178581856115d0565b935061179581856020860161111d565b80840191505092915050565b60006117ad8285611770565b91506117b98284611770565b91508190509392505050565b60006117d18284611770565b915081905092915050565b7f4f776e657220686173206e6f742061677265656420746f2074686520636f6e7460008201527f7261637400000000000000000000000000000000000000000000000000000000602082015250565b600061183860248361110c565b9150611843826117dc565b604082019050919050565b600060208201905081810360008301526118678161182b565b9050919050565b7f4c65616465722068617320616c7265616479207369676e656400000000000000600082015250565b60006118a460198361110c565b91506118af8261186e565b602082019050919050565b600060208201905081810360008301526118d381611897565b9050919050565b7f4c6561646572206e656564206772616e74656420616363657373200000000000600082015250565b6000611910601b8361110c565b915061191b826118da565b602082019050919050565b6000602082019050818103600083015261193f81611903565b9050919050565b7f4e487b7100000000000000000000000000000000000000000000000000000000600052601260045260246000fd5b7f4e487b7100000000000000000000000000000000000000000000000000000000600052601160045260246000fd5b60006119af826110a3565b91506119ba836110a3565b9250826119ca576119c9611946565b5b828204905092915050565b60006119e0826110a3565b91506119eb836110a3565b9250827fffffffffffffffffffffffffffffffffffffffffffffffffffffffffffffffff03821115611a2057611a1f611975565b5b828201905092915050565b6000611a36826110a3565b9150611a41836110a3565b925082821015611a5457611a53611975565b5b82820390509291505056fea26469706673582212203ded1f240d6b0c6bd912d9d91b104926a10af84c3df09c05f1b742b8990aae8464736f6c634300080d0033",
  "immutableReferences": {},
  "source": "// SPDX-License-Identifier: MIT\npragma solidity ^0.8.0;\n\ncontract MortgageContract {\n    address public owner;\n    address public thirdPartyPlatform;\n    address public leader;\n    uint256 public owerUsdtAmount;\n    uint public leaderUsdtAmount;\n    bool public contractInitiated;\n    bool public ownerAgreed;\n    bool public leaderSigned;\n    bool public collateralTransferred;\n    string public requirement;\n    uint public expirationTime;\n\n    mapping(address => uint256) public ownerBalance;\n    mapping(address => uint256) public thirdPartyPlatformBalance;\n    mapping(address => uint256) public leaderBalance;\n\n    event ContractInitiated(\n        address indexed owner,\n        address indexed thirdPartyPlatform,\n        string indexed requirementAndAmount\n    );\n    event ContractApproved(\n        address indexed owner,\n        uint256 indexed owerUsdtAmount\n    );\n    event Transfer(address indexed from, address indexed to, uint256 amount);\n    event Escrowed(address indexed escrowLeader, address indexed escrowOwner);\n    event Signed(address indexed leader);\n\n    modifier onlyOwner() {\n        require(\n            msg.sender == owner,\n            \"Only contract owner can call this function\"\n        );\n        _;\n    }\n\n    modifier onlyLeader() {\n        require(\n            msg.sender == leader,\n            \"Only designated leader can call this function\"\n        );\n        _;\n    }\n\n    modifier onlyThirdPartyPlatform() {\n        require(\n            msg.sender == thirdPartyPlatform,\n            \"Only third party platform can call this function\"\n        );\n        _;\n    }\n\n    constructor() {\n        thirdPartyPlatform = msg.sender;\n\n        contractInitiated = false;\n        ownerAgreed = false;\n        leaderSigned = false;\n        collateralTransferred = false;\n    }\n\n    function initiateContract(\n        address _owner,\n        string memory _requirement,\n        uint256 _owerUsdtAmount,\n        uint256 _expirationTime\n    ) external payable onlyThirdPartyPlatform returns (string memory) {\n        require(!contractInitiated, \"Contract has already been initiated\");\n        // initiate contract var\n        requirement = _requirement;\n        expirationTime = _expirationTime;\n        owerUsdtAmount = _owerUsdtAmount;\n\n        owner = _owner;\n\n        string memory descriptionOfrequirment = string(\n            abi.encodePacked(\"reauirment is : \", requirement)\n        );\n        string memory owerUsdtAmountStr = string(\n            abi.encodePacked(\"usdt amount is : \", owerUsdtAmount)\n        );\n        string memory requirementAndAmount = string(\n            abi.encodePacked(descriptionOfrequirment, owerUsdtAmountStr)\n        );\n\n        emit ContractInitiated(owner, thirdPartyPlatform, requirementAndAmount); // \n\n        contractInitiated = true;\n        return \"initiate contract\";\n    }\n\n    function transferCollateralToThridPartyPlatform(\n        bool _isOnwerAgreed,\n        address payable _thirdPartyPlatform\n    ) public payable returns (bool) {\n        require(_isOnwerAgreed, \"Onwer need granted access \");\n\n        ownerAgreed = _isOnwerAgreed;\n        emit Transfer(msg.sender, _thirdPartyPlatform, msg.value);\n\n        _thirdPartyPlatform.transfer(msg.value);\n        \n\n        emit ContractApproved(owner, msg.value);\n        return true;\n    }\n\n    function requestLeaderSignature(\n        bool _isLeaderAgreed,\n        address _leader\n    ) external onlyThirdPartyPlatform {\n        require(ownerAgreed, \"Owner has not agreed to the contract\");\n        require(!leaderSigned, \"Leader has already signed\");\n        require(_isLeaderAgreed, \"Leader need granted access \");\n\n        leader = _leader;\n        leaderSigned = _isLeaderAgreed;\n        leaderUsdtAmount = owerUsdtAmount / 2;\n\n        emit Escrowed(leader, owner);\n\n        emit Transfer(leader, thirdPartyPlatform, leaderUsdtAmount);\n\n        thirdPartyPlatformBalance[thirdPartyPlatform] += leaderUsdtAmount;\n        leaderBalance[leader] -= leaderUsdtAmount;\n\n        emit Signed(leader);\n    }\n}\n",
  "sourcePath": "/home/outsider/github/truffleSample/contracts/Mortage.sol",
  "compiler": {
    "name": "solc",
    "version": "0.8.13+commit.abaa5c0e.Emscripten.clang"
  },
  "schemaVersion": "3.4.16",
  "updatedAt": "2024-03-24T15:12:23.759Z",
  "networkType": "ethereum",
  "devdoc": {
    "kind": "dev",
    "methods": {},
    "version": 1
  },
  "userdoc": {
    "kind": "user",
    "methods": {},
    "version": 1
  }
}