{
  "contractName": "MyToken",
  "abi": [
    {
      "inputs": [
        {
          "internalType": "string",
          "name": "name",
          "type": "string"
        },
        {
          "internalType": "string",
          "name": "symbol",
          "type": "string"
        },
        {
          "internalType": "uint8",
          "name": "decimals",
          "type": "uint8"
        }
      ],
      "stateMutability": "nonpayable",
      "type": "constructor"
    },
    {
      "anonymous": false,
      "inputs": [
        {
          "indexed": true,
          "internalType": "address",
          "name": "owner",
          "type": "address"
        },
        {
          "indexed": true,
          "internalType": "address",
          "name": "spender",
          "type": "address"
        },
        {
          "indexed": false,
          "internalType": "uint256",
          "name": "value",
          "type": "uint256"
        }
      ],
      "name": "Approval",
      "type": "event"
    },
    {
      "anonymous": false,
      "inputs": [
        {
          "indexed": true,
          "internalType": "address",
          "name": "from",
          "type": "address"
        },
        {
          "indexed": true,
          "internalType": "address",
          "name": "to",
          "type": "address"
        },
        {
          "indexed": false,
          "internalType": "uint256",
          "name": "value",
          "type": "uint256"
        }
      ],
      "name": "Transfer",
      "type": "event"
    },
    {
      "inputs": [
        {
          "internalType": "address",
          "name": "",
          "type": "address"
        },
        {
          "internalType": "address",
          "name": "",
          "type": "address"
        }
      ],
      "name": "allowance",
      "outputs": [
        {
          "internalType": "uint256",
          "name": "",
          "type": "uint256"
        }
      ],
      "stateMutability": "view",
      "type": "function"
    },
    {
      "inputs": [
        {
          "internalType": "address",
          "name": "spender",
          "type": "address"
        },
        {
          "internalType": "uint256",
          "name": "amount",
          "type": "uint256"
        }
      ],
      "name": "approve",
      "outputs": [
        {
          "internalType": "bool",
          "name": "",
          "type": "bool"
        }
      ],
      "stateMutability": "nonpayable",
      "type": "function"
    },
    {
      "inputs": [
        {
          "internalType": "address",
          "name": "",
          "type": "address"
        }
      ],
      "name": "balanceOf",
      "outputs": [
        {
          "internalType": "uint256",
          "name": "",
          "type": "uint256"
        }
      ],
      "stateMutability": "view",
      "type": "function"
    },
    {
      "inputs": [
        {
          "internalType": "address",
          "name": "from",
          "type": "address"
        },
        {
          "internalType": "uint256",
          "name": "amount",
          "type": "uint256"
        }
      ],
      "name": "burn",
      "outputs": [],
      "stateMutability": "nonpayable",
      "type": "function"
    },
    {
      "inputs": [],
      "name": "decimals",
      "outputs": [
        {
          "internalType": "uint8",
          "name": "",
          "type": "uint8"
        }
      ],
      "stateMutability": "view",
      "type": "function"
    },
    {
      "inputs": [],
      "name": "initialAmount",
      "outputs": [
        {
          "internalType": "uint256",
          "name": "",
          "type": "uint256"
        }
      ],
      "stateMutability": "view",
      "type": "function"
    },
    {
      "inputs": [
        {
          "internalType": "address",
          "name": "to",
          "type": "address"
        },
        {
          "internalType": "uint256",
          "name": "amount",
          "type": "uint256"
        }
      ],
      "name": "mint",
      "outputs": [],
      "stateMutability": "nonpayable",
      "type": "function"
    },
    {
      "inputs": [],
      "name": "name",
      "outputs": [
        {
          "internalType": "string",
          "name": "",
          "type": "string"
        }
      ],
      "stateMutability": "view",
      "type": "function"
    },
    {
      "inputs": [],
      "name": "symbol",
      "outputs": [
        {
          "internalType": "string",
          "name": "",
          "type": "string"
        }
      ],
      "stateMutability": "view",
      "type": "function"
    },
    {
      "inputs": [],
      "name": "totalSupply",
      "outputs": [
        {
          "internalType": "uint256",
          "name": "",
          "type": "uint256"
        }
      ],
      "stateMutability": "view",
      "type": "function"
    },
    {
      "inputs": [
        {
          "internalType": "address",
          "name": "recipient",
          "type": "address"
        },
        {
          "internalType": "uint256",
          "name": "amount",
          "type": "uint256"
        }
      ],
      "name": "transfer",
      "outputs": [
        {
          "internalType": "bool",
          "name": "",
          "type": "bool"
        }
      ],
      "stateMutability": "nonpayable",
      "type": "function"
    },
    {
      "inputs": [
        {
          "internalType": "address",
          "name": "sender",
          "type": "address"
        },
        {
          "internalType": "address",
          "name": "recipient",
          "type": "address"
        },
        {
          "internalType": "uint256",
          "name": "amount",
          "type": "uint256"
        }
      ],
      "name": "transferFrom",
      "outputs": [
        {
          "internalType": "bool",
          "name": "",
          "type": "bool"
        }
      ],
      "stateMutability": "nonpayable",
      "type": "function"
    }
  ],
  "bytecode": "0x60806040523480156200001157600080fd5b50604051620015c4380380620015c4833981810160405281019062000037919062000437565b828282826003908051906020019062000052929190620001ac565b5081600490805190602001906200006b929190620001ac565b5080600560006101000a81548160ff021916908360ff16021790555050505061029a600681905550620000c5338260ff16600a620000aa91906200065e565b600654620000b99190620006af565b620000ce60201b60201c565b505050620007ff565b80600160008473ffffffffffffffffffffffffffffffffffffffff1673ffffffffffffffffffffffffffffffffffffffff16815260200190815260200160002060008282546200011f919062000710565b925050819055508060008082825462000139919062000710565b925050819055508173ffffffffffffffffffffffffffffffffffffffff16600073ffffffffffffffffffffffffffffffffffffffff167fddf252ad1be2c89b69c2b068fc378daa952ba7f163c4a11628f55a4df523b3ef83604051620001a091906200077e565b60405180910390a35050565b828054620001ba90620007ca565b90600052602060002090601f016020900481019282620001de57600085556200022a565b82601f10620001f957805160ff19168380011785556200022a565b828001600101855582156200022a579182015b82811115620002295782518255916020019190600101906200020c565b5b5090506200023991906200023d565b5090565b5b80821115620002585760008160009055506001016200023e565b5090565b6000604051905090565b600080fd5b600080fd5b600080fd5b600080fd5b6000601f19601f8301169050919050565b7f4e487b7100000000000000000000000000000000000000000000000000000000600052604160045260246000fd5b620002c5826200027a565b810181811067ffffffffffffffff82111715620002e757620002e66200028b565b5b80604052505050565b6000620002fc6200025c565b90506200030a8282620002ba565b919050565b600067ffffffffffffffff8211156200032d576200032c6200028b565b5b62000338826200027a565b9050602081019050919050565b60005b838110156200036557808201518184015260208101905062000348565b8381111562000375576000848401525b50505050565b6000620003926200038c846200030f565b620002f0565b905082815260208101848484011115620003b157620003b062000275565b5b620003be84828562000345565b509392505050565b600082601f830112620003de57620003dd62000270565b5b8151620003f08482602086016200037b565b91505092915050565b600060ff82169050919050565b6200041181620003f9565b81146200041d57600080fd5b50565b600081519050620004318162000406565b92915050565b60008060006060848603121562000453576200045262000266565b5b600084015167ffffffffffffffff8111156200047457620004736200026b565b5b6200048286828701620003c6565b935050602084015167ffffffffffffffff811115620004a657620004a56200026b565b5b620004b486828701620003c6565b9250506040620004c78682870162000420565b9150509250925092565b7f4e487b7100000000000000000000000000000000000000000000000000000000600052601160045260246000fd5b60008160011c9050919050565b6000808291508390505b60018511156200055f57808604811115620005375762000536620004d1565b5b6001851615620005475780820291505b8081029050620005578562000500565b945062000517565b94509492505050565b6000826200057a57600190506200064d565b816200058a57600090506200064d565b8160018114620005a35760028114620005ae57620005e4565b60019150506200064d565b60ff841115620005c357620005c2620004d1565b5b8360020a915084821115620005dd57620005dc620004d1565b5b506200064d565b5060208310610133831016604e8410600b84101617156200061e5782820a905083811115620006185762000617620004d1565b5b6200064d565b6200062d84848460016200050d565b92509050818404811115620006475762000646620004d1565b5b81810290505b9392505050565b6000819050919050565b60006200066b8262000654565b9150620006788362000654565b9250620006a77fffffffffffffffffffffffffffffffffffffffffffffffffffffffffffffffff848462000568565b905092915050565b6000620006bc8262000654565b9150620006c98362000654565b9250817fffffffffffffffffffffffffffffffffffffffffffffffffffffffffffffffff0483118215151615620007055762000704620004d1565b5b828202905092915050565b60006200071d8262000654565b91506200072a8362000654565b9250827fffffffffffffffffffffffffffffffffffffffffffffffffffffffffffffffff03821115620007625762000761620004d1565b5b828201905092915050565b620007788162000654565b82525050565b60006020820190506200079560008301846200076d565b92915050565b7f4e487b7100000000000000000000000000000000000000000000000000000000600052602260045260246000fd5b60006002820490506001821680620007e357607f821691505b602082108103620007f957620007f86200079b565b5b50919050565b610db5806200080f6000396000f3fe608060405234801561001057600080fd5b50600436106100b45760003560e01c806370a082311161007157806370a082311461018f57806395d89b41146101bf5780639dc29fac146101dd578063a9059cbb146101f9578063dd62ed3e14610229578063fc1ed43714610259576100b4565b806306fdde03146100b9578063095ea7b3146100d757806318160ddd1461010757806323b872dd14610125578063313ce5671461015557806340c10f1914610173575b600080fd5b6100c1610277565b6040516100ce9190610a14565b60405180910390f35b6100f160048036038101906100ec9190610acf565b610305565b6040516100fe9190610b2a565b60405180910390f35b61010f6103f7565b60405161011c9190610b54565b60405180910390f35b61013f600480360381019061013a9190610b6f565b6103fd565b60405161014c9190610b2a565b60405180910390f35b61015d6105ae565b60405161016a9190610bde565b60405180910390f35b61018d60048036038101906101889190610acf565b6105c1565b005b6101a960048036038101906101a49190610bf9565b6105cf565b6040516101b69190610b54565b60405180910390f35b6101c76105e7565b6040516101d49190610a14565b60405180910390f35b6101f760048036038101906101f29190610acf565b610675565b005b610213600480360381019061020e9190610acf565b610683565b6040516102209190610b2a565b60405180910390f35b610243600480360381019061023e9190610c26565b6107a0565b6040516102509190610b54565b60405180910390f35b6102616107c5565b60405161026e9190610b54565b60405180910390f35b6003805461028490610c95565b80601f01602080910402602001604051908101604052809291908181526020018280546102b090610c95565b80156102fd5780601f106102d2576101008083540402835291602001916102fd565b820191906000526020600020905b8154815290600101906020018083116102e057829003601f168201915b505050505081565b600081600260003373ffffffffffffffffffffffffffffffffffffffff1673ffffffffffffffffffffffffffffffffffffffff16815260200190815260200160002060008573ffffffffffffffffffffffffffffffffffffffff1673ffffffffffffffffffffffffffffffffffffffff168152602001908152602001600020819055508273ffffffffffffffffffffffffffffffffffffffff163373ffffffffffffffffffffffffffffffffffffffff167f8c5be1e5ebec7d5bd14f71427d1e84f3dd0314c0f7b2291e5b200ac8c7c3b925846040516103e59190610b54565b60405180910390a36001905092915050565b60005481565b600081600260008673ffffffffffffffffffffffffffffffffffffffff1673ffffffffffffffffffffffffffffffffffffffff16815260200190815260200160002060003373ffffffffffffffffffffffffffffffffffffffff1673ffffffffffffffffffffffffffffffffffffffff168152602001908152602001600020600082825461048b9190610cf5565b9250508190555081600160008673ffffffffffffffffffffffffffffffffffffffff1673ffffffffffffffffffffffffffffffffffffffff16815260200190815260200160002060008282546104e19190610cf5565b9250508190555081600160008573ffffffffffffffffffffffffffffffffffffffff1673ffffffffffffffffffffffffffffffffffffffff16815260200190815260200160002060008282546105379190610d29565b925050819055508273ffffffffffffffffffffffffffffffffffffffff168473ffffffffffffffffffffffffffffffffffffffff167fddf252ad1be2c89b69c2b068fc378daa952ba7f163c4a11628f55a4df523b3ef8460405161059b9190610b54565b60405180910390a3600190509392505050565b600560009054906101000a900460ff1681565b6105cb82826107cb565b5050565b60016020528060005260406000206000915090505481565b600480546105f490610c95565b80601f016020809104026020016040519081016040528092919081815260200182805461062090610c95565b801561066d5780601f106106425761010080835404028352916020019161066d565b820191906000526020600020905b81548152906001019060200180831161065057829003601f168201915b505050505081565b61067f82826108a3565b5050565b600081600160003373ffffffffffffffffffffffffffffffffffffffff1673ffffffffffffffffffffffffffffffffffffffff16815260200190815260200160002060008282546106d49190610cf5565b9250508190555081600160008573ffffffffffffffffffffffffffffffffffffffff1673ffffffffffffffffffffffffffffffffffffffff168152602001908152602001600020600082825461072a9190610d29565b925050819055508273ffffffffffffffffffffffffffffffffffffffff163373ffffffffffffffffffffffffffffffffffffffff167fddf252ad1be2c89b69c2b068fc378daa952ba7f163c4a11628f55a4df523b3ef8460405161078e9190610b54565b60405180910390a36001905092915050565b6002602052816000526040600020602052806000526040600020600091509150505481565b60065481565b80600160008473ffffffffffffffffffffffffffffffffffffffff1673ffffffffffffffffffffffffffffffffffffffff168152602001908152602001600020600082825461081a9190610d29565b92505081905550806000808282546108329190610d29565b925050819055508173ffffffffffffffffffffffffffffffffffffffff16600073ffffffffffffffffffffffffffffffffffffffff167fddf252ad1be2c89b69c2b068fc378daa952ba7f163c4a11628f55a4df523b3ef836040516108979190610b54565b60405180910390a35050565b80600160008473ffffffffffffffffffffffffffffffffffffffff1673ffffffffffffffffffffffffffffffffffffffff16815260200190815260200160002060008282546108f29190610cf5565b925050819055508060008082825461090a9190610cf5565b92505081905550600073ffffffffffffffffffffffffffffffffffffffff168273ffffffffffffffffffffffffffffffffffffffff167fddf252ad1be2c89b69c2b068fc378daa952ba7f163c4a11628f55a4df523b3ef8360405161096f9190610b54565b60405180910390a35050565b600081519050919050565b600082825260208201905092915050565b60005b838110156109b557808201518184015260208101905061099a565b838111156109c4576000848401525b50505050565b6000601f19601f8301169050919050565b60006109e68261097b565b6109f08185610986565b9350610a00818560208601610997565b610a09816109ca565b840191505092915050565b60006020820190508181036000830152610a2e81846109db565b905092915050565b600080fd5b600073ffffffffffffffffffffffffffffffffffffffff82169050919050565b6000610a6682610a3b565b9050919050565b610a7681610a5b565b8114610a8157600080fd5b50565b600081359050610a9381610a6d565b92915050565b6000819050919050565b610aac81610a99565b8114610ab757600080fd5b50565b600081359050610ac981610aa3565b92915050565b60008060408385031215610ae657610ae5610a36565b5b6000610af485828601610a84565b9250506020610b0585828601610aba565b9150509250929050565b60008115159050919050565b610b2481610b0f565b82525050565b6000602082019050610b3f6000830184610b1b565b92915050565b610b4e81610a99565b82525050565b6000602082019050610b696000830184610b45565b92915050565b600080600060608486031215610b8857610b87610a36565b5b6000610b9686828701610a84565b9350506020610ba786828701610a84565b9250506040610bb886828701610aba565b9150509250925092565b600060ff82169050919050565b610bd881610bc2565b82525050565b6000602082019050610bf36000830184610bcf565b92915050565b600060208284031215610c0f57610c0e610a36565b5b6000610c1d84828501610a84565b91505092915050565b60008060408385031215610c3d57610c3c610a36565b5b6000610c4b85828601610a84565b9250506020610c5c85828601610a84565b9150509250929050565b7f4e487b7100000000000000000000000000000000000000000000000000000000600052602260045260246000fd5b60006002820490506001821680610cad57607f821691505b602082108103610cc057610cbf610c66565b5b50919050565b7f4e487b7100000000000000000000000000000000000000000000000000000000600052601160045260246000fd5b6000610d0082610a99565b9150610d0b83610a99565b925082821015610d1e57610d1d610cc6565b5b828203905092915050565b6000610d3482610a99565b9150610d3f83610a99565b9250827fffffffffffffffffffffffffffffffffffffffffffffffffffffffffffffffff03821115610d7457610d73610cc6565b5b82820190509291505056fea2646970667358221220e7159a952e3c61f65de3ac0c216843de8f0b27be4f2ff17fb653af627987afaa64736f6c634300080d0033",
  "immutableReferences": {},
  "source": "// SPDX-License-Identifier: MIT\npragma solidity ^0.8.13;\n\nimport \"./ERC20.sol\";\n\ncontract MyToken is ERC20 {\n     uint256 public initialAmount;\n    constructor(string memory name, string memory symbol, uint8 decimals)\n        ERC20(name, symbol, decimals)\n    {\n        initialAmount = 666;\n        _mint(msg.sender, initialAmount * 10 ** uint256(decimals));\n    }\n}\n",
  "sourcePath": "/home/outsider/github/truffleSample/contracts/MyToken.sol",
  "compiler": {
    "name": "solc",
    "version": "0.8.13+commit.abaa5c0e.Emscripten.clang"
  },
  "schemaVersion": "3.4.16",
  "updatedAt": "2024-03-24T15:12:23.753Z",
  "networkType": "ethereum",
  "devdoc": {
    "kind": "dev",
    "methods": {},
    "version": 1
  },
  "userdoc": {
    "kind": "user",
    "methods": {},
    "version": 1
  }
}