{
  "contractName": "MortgageContract",
  "abi": [
    {
      "inputs": [],
      "stateMutability": "nonpayable",
      "type": "constructor"
    },
    {
      "anonymous": false,
      "inputs": [
        {
          "indexed": true,
          "internalType": "address",
          "name": "owner",
          "type": "address"
        },
        {
          "indexed": true,
          "internalType": "uint256",
          "name": "owerUsdtAmount",
          "type": "uint256"
        }
      ],
      "name": "ContractApproved",
      "type": "event"
    },
    {
      "anonymous": false,
      "inputs": [
        {
          "indexed": true,
          "internalType": "address",
          "name": "owner",
          "type": "address"
        },
        {
          "indexed": true,
          "internalType": "address",
          "name": "thirdPartyPlatform",
          "type": "address"
        },
        {
          "indexed": true,
          "internalType": "string",
          "name": "requirementAndAmount",
          "type": "string"
        }
      ],
      "name": "ContractInitiated",
      "type": "event"
    },
    {
      "anonymous": false,
      "inputs": [
        {
          "indexed": true,
          "internalType": "address",
          "name": "escrowLeader",
          "type": "address"
        },
        {
          "indexed": true,
          "internalType": "address",
          "name": "escrowOwner",
          "type": "address"
        }
      ],
      "name": "Escrowed",
      "type": "event"
    },
    {
      "anonymous": false,
      "inputs": [
        {
          "indexed": true,
          "internalType": "address",
          "name": "leader",
          "type": "address"
        }
      ],
      "name": "Signed",
      "type": "event"
    },
    {
      "anonymous": false,
      "inputs": [
        {
          "indexed": true,
          "internalType": "address",
          "name": "from",
          "type": "address"
        },
        {
          "indexed": true,
          "internalType": "address",
          "name": "to",
          "type": "address"
        },
        {
          "indexed": false,
          "internalType": "uint256",
          "name": "amount",
          "type": "uint256"
        }
      ],
      "name": "Transfer",
      "type": "event"
    },
    {
      "inputs": [],
      "name": "collateralTransferred",
      "outputs": [
        {
          "internalType": "bool",
          "name": "",
          "type": "bool"
        }
      ],
      "stateMutability": "view",
      "type": "function",
      "constant": true
    },
    {
      "inputs": [],
      "name": "contractInitiated",
      "outputs": [
        {
          "internalType": "bool",
          "name": "",
          "type": "bool"
        }
      ],
      "stateMutability": "view",
      "type": "function",
      "constant": true
    },
    {
      "inputs": [],
      "name": "expirationTime",
      "outputs": [
        {
          "internalType": "uint256",
          "name": "",
          "type": "uint256"
        }
      ],
      "stateMutability": "view",
      "type": "function",
      "constant": true
    },
    {
      "inputs": [],
      "name": "leader",
      "outputs": [
        {
          "internalType": "address",
          "name": "",
          "type": "address"
        }
      ],
      "stateMutability": "view",
      "type": "function",
      "constant": true
    },
    {
      "inputs": [
        {
          "internalType": "address",
          "name": "",
          "type": "address"
        }
      ],
      "name": "leaderBalance",
      "outputs": [
        {
          "internalType": "uint256",
          "name": "",
          "type": "uint256"
        }
      ],
      "stateMutability": "view",
      "type": "function",
      "constant": true
    },
    {
      "inputs": [],
      "name": "leaderSigned",
      "outputs": [
        {
          "internalType": "bool",
          "name": "",
          "type": "bool"
        }
      ],
      "stateMutability": "view",
      "type": "function",
      "constant": true
    },
    {
      "inputs": [],
      "name": "leaderUsdtAmount",
      "outputs": [
        {
          "internalType": "uint256",
          "name": "",
          "type": "uint256"
        }
      ],
      "stateMutability": "view",
      "type": "function",
      "constant": true
    },
    {
      "inputs": [],
      "name": "owerUsdtAmount",
      "outputs": [
        {
          "internalType": "uint256",
          "name": "",
          "type": "uint256"
        }
      ],
      "stateMutability": "view",
      "type": "function",
      "constant": true
    },
    {
      "inputs": [],
      "name": "owner",
      "outputs": [
        {
          "internalType": "address",
          "name": "",
          "type": "address"
        }
      ],
      "stateMutability": "view",
      "type": "function",
      "constant": true
    },
    {
      "inputs": [],
      "name": "ownerAgreed",
      "outputs": [
        {
          "internalType": "bool",
          "name": "",
          "type": "bool"
        }
      ],
      "stateMutability": "view",
      "type": "function",
      "constant": true
    },
    {
      "inputs": [
        {
          "internalType": "address",
          "name": "",
          "type": "address"
        }
      ],
      "name": "ownerBalance",
      "outputs": [
        {
          "internalType": "uint256",
          "name": "",
          "type": "uint256"
        }
      ],
      "stateMutability": "view",
      "type": "function",
      "constant": true
    },
    {
      "inputs": [],
      "name": "requirement",
      "outputs": [
        {
          "internalType": "string",
          "name": "",
          "type": "string"
        }
      ],
      "stateMutability": "view",
      "type": "function",
      "constant": true
    },
    {
      "inputs": [],
      "name": "thirdPartyPlatform",
      "outputs": [
        {
          "internalType": "address",
          "name": "",
          "type": "address"
        }
      ],
      "stateMutability": "view",
      "type": "function",
      "constant": true
    },
    {
      "inputs": [
        {
          "internalType": "address",
          "name": "",
          "type": "address"
        }
      ],
      "name": "thirdPartyPlatformBalance",
      "outputs": [
        {
          "internalType": "uint256",
          "name": "",
          "type": "uint256"
        }
      ],
      "stateMutability": "view",
      "type": "function",
      "constant": true
    },
    {
      "inputs": [
        {
          "internalType": "address",
          "name": "_owner",
          "type": "address"
        },
        {
          "internalType": "string",
          "name": "_requirement",
          "type": "string"
        },
        {
          "internalType": "uint256",
          "name": "_owerUsdtAmount",
          "type": "uint256"
        },
        {
          "internalType": "uint256",
          "name": "_expirationTime",
          "type": "uint256"
        }
      ],
      "name": "initiateContract",
      "outputs": [],
      "stateMutability": "nonpayable",
      "type": "function"
    },
    {
      "inputs": [
        {
          "internalType": "bool",
          "name": "_isOnwerAgreed",
          "type": "bool"
        },
        {
          "internalType": "address payable",
          "name": "_thirdPartyPlatform",
          "type": "address"
        }
      ],
      "name": "transferCollateralToThridPartyPlatform",
      "outputs": [],
      "stateMutability": "payable",
      "type": "function",
      "payable": true
    },
    {
      "inputs": [
        {
          "internalType": "bool",
          "name": "_isLeaderAgreed",
          "type": "bool"
        },
        {
          "internalType": "address",
          "name": "_leader",
          "type": "address"
        }
      ],
      "name": "requestLeaderSignature",
      "outputs": [],
      "stateMutability": "nonpayable",
      "type": "function"
    }
  ],
  "bytecode": "0x608060405234801561001057600080fd5b5033600160006101000a81548173ffffffffffffffffffffffffffffffffffffffff021916908373ffffffffffffffffffffffffffffffffffffffff1602179055506000600560006101000a81548160ff0219169083151502179055506000600560016101000a81548160ff0219169083151502179055506000600560026101000a81548160ff0219169083151502179055506000600560036101000a81548160ff021916908315150217905550611bca806100cd6000396000f3fe6080604052600436106100fe5760003560e01c8063adab469411610095578063da284dcc11610064578063da284dcc1461032e578063e30b6a3d14610359578063f2fd634314610382578063f377b916146103ad578063f8750479146103d8576100fe565b8063adab46941461025e578063af90fdfd14610289578063b32e531e146102c6578063b756393014610303576100fe565b806340eedabb116100d157806340eedabb146101b25780638da5cb5b146101dd57806390e3fad514610208578063a150186f14610233576100fe565b80630b3ec6e414610103578063257e59121461011f5780632832d4aa1461015c57806340b274a214610187575b600080fd5b61011d6004803603810190610118919061102b565b610401565b005b34801561012b57600080fd5b50610146600480360381019061014191906110a9565b61062b565b60405161015391906110ef565b60405180910390f35b34801561016857600080fd5b50610171610643565b60405161017e91906110ef565b60405180910390f35b34801561019357600080fd5b5061019c610649565b6040516101a99190611119565b60405180910390f35b3480156101be57600080fd5b506101c761065c565b6040516101d49190611143565b60405180910390f35b3480156101e957600080fd5b506101f2610682565b6040516101ff9190611143565b60405180910390f35b34801561021457600080fd5b5061021d6106a6565b60405161022a9190611119565b60405180910390f35b34801561023f57600080fd5b506102486106b9565b6040516102559190611119565b60405180910390f35b34801561026a57600080fd5b506102736106cc565b6040516102809190611143565b60405180910390f35b34801561029557600080fd5b506102b060048036038101906102ab91906110a9565b6106f2565b6040516102bd91906110ef565b60405180910390f35b3480156102d257600080fd5b506102ed60048036038101906102e891906110a9565b61070a565b6040516102fa91906110ef565b60405180910390f35b34801561030f57600080fd5b50610318610722565b60405161032591906111f7565b60405180910390f35b34801561033a57600080fd5b506103436107b0565b60405161035091906110ef565b60405180910390f35b34801561036557600080fd5b50610380600480360381019061037b919061137a565b6107b6565b005b34801561038e57600080fd5b50610397610a42565b6040516103a491906110ef565b60405180910390f35b3480156103b957600080fd5b506103c2610a48565b6040516103cf9190611119565b60405180910390f35b3480156103e457600080fd5b506103ff60048036038101906103fa91906113fd565b610a5b565b005b81610441576040517f08c379a000000000000000000000000000000000000000000000000000000000815260040161043890611489565b60405180910390fd5b47341115610484576040517f08c379a000000000000000000000000000000000000000000000000000000000815260040161047b906114f5565b60405180910390fd5b81600560016101000a81548160ff021916908315150217905550600160009054906101000a900473ffffffffffffffffffffffffffffffffffffffff1673ffffffffffffffffffffffffffffffffffffffff1660008054906101000a900473ffffffffffffffffffffffffffffffffffffffff1673ffffffffffffffffffffffffffffffffffffffff167fddf252ad1be2c89b69c2b068fc378daa952ba7f163c4a11628f55a4df523b3ef60035460405161053f91906110ef565b60405180910390a360008173ffffffffffffffffffffffffffffffffffffffff166108fc349081150290604051600060405180830381858888f193505050509050806105c0576040517f08c379a00000000000000000000000000000000000000000000000000000000081526004016105b790611561565b60405180910390fd5b60035460008054906101000a900473ffffffffffffffffffffffffffffffffffffffff1673ffffffffffffffffffffffffffffffffffffffff167f5f327dfbc26b4773c8990edbc20356f43975e2a38466359fad3bd2b77dee243360405160405180910390a3505050565b60096020528060005260406000206000915090505481565b60035481565b600560009054906101000a900460ff1681565b600260009054906101000a900473ffffffffffffffffffffffffffffffffffffffff1681565b60008054906101000a900473ffffffffffffffffffffffffffffffffffffffff1681565b600560029054906101000a900460ff1681565b600560039054906101000a900460ff1681565b600160009054906101000a900473ffffffffffffffffffffffffffffffffffffffff1681565b60086020528060005260406000206000915090505481565b600a6020528060005260406000206000915090505481565b6006805461072f906115b0565b80601f016020809104026020016040519081016040528092919081815260200182805461075b906115b0565b80156107a85780601f1061077d576101008083540402835291602001916107a8565b820191906000526020600020905b81548152906001019060200180831161078b57829003601f168201915b505050505081565b60075481565b600160009054906101000a900473ffffffffffffffffffffffffffffffffffffffff1673ffffffffffffffffffffffffffffffffffffffff163373ffffffffffffffffffffffffffffffffffffffff1614610846576040517f08c379a000000000000000000000000000000000000000000000000000000000815260040161083d90611653565b60405180910390fd5b600560009054906101000a900460ff1615610896576040517f08c379a000000000000000000000000000000000000000000000000000000000815260040161088d906116e5565b60405180910390fd5b82600690805190602001906108ac929190610ede565b508060078190555081600381905550836000806101000a81548173ffffffffffffffffffffffffffffffffffffffff021916908373ffffffffffffffffffffffffffffffffffffffff1602179055506000600660405160200161090f91906117f0565b60405160208183030381529060405290506000600354604051602001610935919061187f565b60405160208183030381529060405290506000828260405160200161095b9291906118d6565b60405160208183030381529060405290508060405161097a91906118fa565b6040518091039020600160009054906101000a900473ffffffffffffffffffffffffffffffffffffffff1673ffffffffffffffffffffffffffffffffffffffff1660008054906101000a900473ffffffffffffffffffffffffffffffffffffffff1673ffffffffffffffffffffffffffffffffffffffff167f134eda9b6ac316900e429ad28ffb580199cb6c97999862ac7326acfba78ed47960405160405180910390a46001600560006101000a81548160ff02191690831515021790555050505050505050565b60045481565b600560019054906101000a900460ff1681565b600160009054906101000a900473ffffffffffffffffffffffffffffffffffffffff1673ffffffffffffffffffffffffffffffffffffffff163373ffffffffffffffffffffffffffffffffffffffff1614610aeb576040517f08c379a0000000000000000000000000000000000000000000000000000000008152600401610ae290611653565b60405180910390fd5b600560019054906101000a900460ff16610b3a576040517f08c379a0000000000000000000000000000000000000000000000000000000008152600401610b3190611983565b60405180910390fd5b600560029054906101000a900460ff1615610b8a576040517f08c379a0000000000000000000000000000000000000000000000000000000008152600401610b81906119ef565b60405180910390fd5b81610bca576040517f08c379a0000000000000000000000000000000000000000000000000000000008152600401610bc190611a5b565b60405180910390fd5b80600260006101000a81548173ffffffffffffffffffffffffffffffffffffffff021916908373ffffffffffffffffffffffffffffffffffffffff16021790555081600560026101000a81548160ff0219169083151502179055506002600354610c349190611ad9565b60048190555060008054906101000a900473ffffffffffffffffffffffffffffffffffffffff1673ffffffffffffffffffffffffffffffffffffffff16600260009054906101000a900473ffffffffffffffffffffffffffffffffffffffff1673ffffffffffffffffffffffffffffffffffffffff167f98d29424345df14771f6f9633f8fe3f9576018660b5114690c4da12ad96f827260405160405180910390a3600160009054906101000a900473ffffffffffffffffffffffffffffffffffffffff1673ffffffffffffffffffffffffffffffffffffffff16600260009054906101000a900473ffffffffffffffffffffffffffffffffffffffff1673ffffffffffffffffffffffffffffffffffffffff167fddf252ad1be2c89b69c2b068fc378daa952ba7f163c4a11628f55a4df523b3ef600454604051610d7991906110ef565b60405180910390a360045460096000600160009054906101000a900473ffffffffffffffffffffffffffffffffffffffff1673ffffffffffffffffffffffffffffffffffffffff1673ffffffffffffffffffffffffffffffffffffffff1681526020019081526020016000206000828254610df49190611b0a565b92505081905550600454600a6000600260009054906101000a900473ffffffffffffffffffffffffffffffffffffffff1673ffffffffffffffffffffffffffffffffffffffff1673ffffffffffffffffffffffffffffffffffffffff1681526020019081526020016000206000828254610e6e9190611b60565b92505081905550600260009054906101000a900473ffffffffffffffffffffffffffffffffffffffff1673ffffffffffffffffffffffffffffffffffffffff167f568aebae0f7dc6c96727fb4cdfdf7add45fec43fffd69b3fa71ea0898a27f8cc60405160405180910390a25050565b828054610eea906115b0565b90600052602060002090601f016020900481019282610f0c5760008555610f53565b82601f10610f2557805160ff1916838001178555610f53565b82800160010185558215610f53579182015b82811115610f52578251825591602001919060010190610f37565b5b509050610f609190610f64565b5090565b5b80821115610f7d576000816000905550600101610f65565b5090565b6000604051905090565b600080fd5b600080fd5b60008115159050919050565b610faa81610f95565b8114610fb557600080fd5b50565b600081359050610fc781610fa1565b92915050565b600073ffffffffffffffffffffffffffffffffffffffff82169050919050565b6000610ff882610fcd565b9050919050565b61100881610fed565b811461101357600080fd5b50565b60008135905061102581610fff565b92915050565b6000806040838503121561104257611041610f8b565b5b600061105085828601610fb8565b925050602061106185828601611016565b9150509250929050565b600061107682610fcd565b9050919050565b6110868161106b565b811461109157600080fd5b50565b6000813590506110a38161107d565b92915050565b6000602082840312156110bf576110be610f8b565b5b60006110cd84828501611094565b91505092915050565b6000819050919050565b6110e9816110d6565b82525050565b600060208201905061110460008301846110e0565b92915050565b61111381610f95565b82525050565b600060208201905061112e600083018461110a565b92915050565b61113d8161106b565b82525050565b60006020820190506111586000830184611134565b92915050565b600081519050919050565b600082825260208201905092915050565b60005b8381101561119857808201518184015260208101905061117d565b838111156111a7576000848401525b50505050565b6000601f19601f8301169050919050565b60006111c98261115e565b6111d38185611169565b93506111e381856020860161117a565b6111ec816111ad565b840191505092915050565b6000602082019050818103600083015261121181846111be565b905092915050565b600080fd5b600080fd5b7f4e487b7100000000000000000000000000000000000000000000000000000000600052604160045260246000fd5b61125b826111ad565b810181811067ffffffffffffffff8211171561127a57611279611223565b5b80604052505050565b600061128d610f81565b90506112998282611252565b919050565b600067ffffffffffffffff8211156112b9576112b8611223565b5b6112c2826111ad565b9050602081019050919050565b82818337600083830152505050565b60006112f16112ec8461129e565b611283565b90508281526020810184848401111561130d5761130c61121e565b5b6113188482856112cf565b509392505050565b600082601f83011261133557611334611219565b5b81356113458482602086016112de565b91505092915050565b611357816110d6565b811461136257600080fd5b50565b6000813590506113748161134e565b92915050565b6000806000806080858703121561139457611393610f8b565b5b60006113a287828801611094565b945050602085013567ffffffffffffffff8111156113c3576113c2610f90565b5b6113cf87828801611320565b93505060406113e087828801611365565b92505060606113f187828801611365565b91505092959194509250565b6000806040838503121561141457611413610f8b565b5b600061142285828601610fb8565b925050602061143385828601611094565b9150509250929050565b7f4f6e776572206e656564206772616e7465642061636365737320000000000000600082015250565b6000611473601a83611169565b915061147e8261143d565b602082019050919050565b600060208201905081810360008301526114a281611466565b9050919050565b7f496e73756666696369656e742062616c616e6365000000000000000000000000600082015250565b60006114df601483611169565b91506114ea826114a9565b602082019050919050565b6000602082019050818103600083015261150e816114d2565b9050919050565b7f4661696c656420746f2073656e64204574686572000000000000000000000000600082015250565b600061154b601483611169565b915061155682611515565b602082019050919050565b6000602082019050818103600083015261157a8161153e565b9050919050565b7f4e487b7100000000000000000000000000000000000000000000000000000000600052602260045260246000fd5b600060028204905060018216806115c857607f821691505b6020821081036115db576115da611581565b5b50919050565b7f4f6e6c7920746869726420706172747920706c6174666f726d2063616e20636160008201527f6c6c20746869732066756e6374696f6e00000000000000000000000000000000602082015250565b600061163d603083611169565b9150611648826115e1565b604082019050919050565b6000602082019050818103600083015261166c81611630565b9050919050565b7f436f6e74726163742068617320616c7265616479206265656e20696e6974696160008201527f7465640000000000000000000000000000000000000000000000000000000000602082015250565b60006116cf602383611169565b91506116da82611673565b604082019050919050565b600060208201905081810360008301526116fe816116c2565b9050919050565b600081905092915050565b7f7265617569726d656e74206973203a2000000000000000000000000000000000600082015250565b6000611746601083611705565b915061175182611710565b601082019050919050565b60008190508160005260206000209050919050565b6000815461177e816115b0565b6117888186611705565b945060018216600081146117a357600181146117b4576117e7565b60ff198316865281860193506117e7565b6117bd8561175c565b60005b838110156117df578154818901526001820191506020810190506117c0565b838801955050505b50505092915050565b60006117fb82611739565b91506118078284611771565b915081905092915050565b7f7573647420616d6f756e74206973203a20000000000000000000000000000000600082015250565b6000611848601183611705565b915061185382611812565b601182019050919050565b6000819050919050565b611879611874826110d6565b61185e565b82525050565b600061188a8261183b565b91506118968284611868565b60208201915081905092915050565b60006118b08261115e565b6118ba8185611705565b93506118ca81856020860161117a565b80840191505092915050565b60006118e282856118a5565b91506118ee82846118a5565b91508190509392505050565b600061190682846118a5565b915081905092915050565b7f4f776e657220686173206e6f742061677265656420746f2074686520636f6e7460008201527f7261637400000000000000000000000000000000000000000000000000000000602082015250565b600061196d602483611169565b915061197882611911565b604082019050919050565b6000602082019050818103600083015261199c81611960565b9050919050565b7f4c65616465722068617320616c7265616479207369676e656400000000000000600082015250565b60006119d9601983611169565b91506119e4826119a3565b602082019050919050565b60006020820190508181036000830152611a08816119cc565b9050919050565b7f4c6561646572206e656564206772616e74656420616363657373200000000000600082015250565b6000611a45601b83611169565b9150611a5082611a0f565b602082019050919050565b60006020820190508181036000830152611a7481611a38565b9050919050565b7f4e487b7100000000000000000000000000000000000000000000000000000000600052601260045260246000fd5b7f4e487b7100000000000000000000000000000000000000000000000000000000600052601160045260246000fd5b6000611ae4826110d6565b9150611aef836110d6565b925082611aff57611afe611a7b565b5b828204905092915050565b6000611b15826110d6565b9150611b20836110d6565b9250827fffffffffffffffffffffffffffffffffffffffffffffffffffffffffffffffff03821115611b5557611b54611aaa565b5b828201905092915050565b6000611b6b826110d6565b9150611b76836110d6565b925082821015611b8957611b88611aaa565b5b82820390509291505056fea26469706673582212206c0ca09af4d1170c35f9a5f5d0ea0364b6966303cbc6ee86eaa6c44f6d8b458c64736f6c634300080d0033",
  "immutableReferences": {},
  "source": "// SPDX-License-Identifier: MIT\npragma solidity ^0.8.0;\n\ncontract MortgageContract {\n    address public owner;\n    address public thirdPartyPlatform;\n    address public leader;\n    uint256 public owerUsdtAmount;\n    uint public leaderUsdtAmount;\n    bool public contractInitiated;\n    bool public ownerAgreed;\n    bool public leaderSigned;\n    bool public collateralTransferred;\n    string public requirement;\n    uint public expirationTime;\n\n    mapping(address => uint256) public ownerBalance;\n    mapping(address => uint256) public thirdPartyPlatformBalance;\n    mapping(address => uint256) public leaderBalance;\n\n    event ContractInitiated(\n        address indexed owner,\n        address indexed thirdPartyPlatform,\n        string indexed requirementAndAmount\n    );\n    event ContractApproved(\n        address indexed owner,\n        uint256 indexed owerUsdtAmount\n    );\n    event Transfer(address indexed from, address indexed to, uint256 amount);\n    event Escrowed(address indexed escrowLeader, address indexed escrowOwner);\n    event Signed(address indexed leader);\n\n    modifier onlyOwner() {\n        require(\n            msg.sender == owner,\n            \"Only contract owner can call this function\"\n        );\n        _;\n    }\n\n    modifier onlyLeader() {\n        require(\n            msg.sender == leader,\n            \"Only designated leader can call this function\"\n        );\n        _;\n    }\n\n    modifier onlyThirdPartyPlatform() {\n        require(\n            msg.sender == thirdPartyPlatform,\n            \"Only third party platform can call this function\"\n        );\n        _;\n    }\n\n    constructor() {\n        thirdPartyPlatform = msg.sender;\n\n        contractInitiated = false;\n        ownerAgreed = false;\n        leaderSigned = false;\n        collateralTransferred = false;\n    }\n\n    function initiateContract(\n        address _owner,\n        string memory _requirement,\n        uint256 _owerUsdtAmount,\n        uint256 _expirationTime\n    ) external onlyThirdPartyPlatform {\n        require(!contractInitiated, \"Contract has already been initiated\");\n        // initiate contract var\n        requirement = _requirement;\n        expirationTime = _expirationTime;\n        owerUsdtAmount = _owerUsdtAmount;\n\n        owner = _owner;\n\n        string memory descriptionOfrequirment = string(\n            abi.encodePacked(\"reauirment is : \", requirement)\n        );\n        string memory owerUsdtAmountStr = string(\n            abi.encodePacked(\"usdt amount is : \", owerUsdtAmount)\n        );\n        string memory requirementAndAmount = string(\n            abi.encodePacked(descriptionOfrequirment, owerUsdtAmountStr)\n        );\n\n        emit ContractInitiated(owner, thirdPartyPlatform, requirementAndAmount); // \n\n        contractInitiated = true;\n    }\n\n    function transferCollateralToThridPartyPlatform(\n        bool _isOnwerAgreed,\n        address payable _thirdPartyPlatform\n    ) public payable {\n        require(_isOnwerAgreed, \"Onwer need granted access \");\n        require(msg.value <= address(this).balance, \"Insufficient balance\");\n        ownerAgreed = _isOnwerAgreed;\n        emit Transfer(owner, thirdPartyPlatform, owerUsdtAmount);\n\n        bool sent = _thirdPartyPlatform.send(msg.value);\n        require(sent, \"Failed to send Ether\");\n\n        emit ContractApproved(owner, owerUsdtAmount);\n    }\n\n    function requestLeaderSignature(\n        bool _isLeaderAgreed,\n        address _leader\n    ) external onlyThirdPartyPlatform {\n        require(ownerAgreed, \"Owner has not agreed to the contract\");\n        require(!leaderSigned, \"Leader has already signed\");\n        require(_isLeaderAgreed, \"Leader need granted access \");\n\n        leader = _leader;\n        leaderSigned = _isLeaderAgreed;\n        leaderUsdtAmount = owerUsdtAmount / 2;\n\n        emit Escrowed(leader, owner);\n\n        emit Transfer(leader, thirdPartyPlatform, leaderUsdtAmount);\n\n        thirdPartyPlatformBalance[thirdPartyPlatform] += leaderUsdtAmount;\n        leaderBalance[leader] -= leaderUsdtAmount;\n\n        emit Signed(leader);\n    }\n}\n",
  "sourcePath": "/home/outsider/github/truffleSample/contracts/Mortage.sol",
  "compiler": {
    "name": "solc",
    "version": "0.8.13+commit.abaa5c0e.Emscripten.clang"
  },
  "schemaVersion": "3.4.16",
  "updatedAt": "2024-03-24T12:26:42.009Z",
  "networkType": "ethereum",
  "devdoc": {
    "kind": "dev",
    "methods": {},
    "version": 1
  },
  "userdoc": {
    "kind": "user",
    "methods": {},
    "version": 1
  }
}