{
  "contractName": "MyToken",
  "abi": [
    {
      "inputs": [
        {
          "internalType": "string",
          "name": "name",
          "type": "string"
        },
        {
          "internalType": "string",
          "name": "symbol",
          "type": "string"
        },
        {
          "internalType": "uint8",
          "name": "decimals",
          "type": "uint8"
        }
      ],
      "stateMutability": "nonpayable",
      "type": "constructor"
    },
    {
      "anonymous": false,
      "inputs": [
        {
          "indexed": true,
          "internalType": "address",
          "name": "owner",
          "type": "address"
        },
        {
          "indexed": true,
          "internalType": "address",
          "name": "spender",
          "type": "address"
        },
        {
          "indexed": false,
          "internalType": "uint256",
          "name": "value",
          "type": "uint256"
        }
      ],
      "name": "Approval",
      "type": "event"
    },
    {
      "anonymous": false,
      "inputs": [
        {
          "indexed": true,
          "internalType": "address",
          "name": "from",
          "type": "address"
        },
        {
          "indexed": true,
          "internalType": "address",
          "name": "to",
          "type": "address"
        },
        {
          "indexed": false,
          "internalType": "uint256",
          "name": "value",
          "type": "uint256"
        }
      ],
      "name": "Transfer",
      "type": "event"
    },
    {
      "inputs": [
        {
          "internalType": "address",
          "name": "",
          "type": "address"
        },
        {
          "internalType": "address",
          "name": "",
          "type": "address"
        }
      ],
      "name": "allowance",
      "outputs": [
        {
          "internalType": "uint256",
          "name": "",
          "type": "uint256"
        }
      ],
      "stateMutability": "view",
      "type": "function",
      "constant": true
    },
    {
      "inputs": [
        {
          "internalType": "address",
          "name": "spender",
          "type": "address"
        },
        {
          "internalType": "uint256",
          "name": "amount",
          "type": "uint256"
        }
      ],
      "name": "approve",
      "outputs": [
        {
          "internalType": "bool",
          "name": "",
          "type": "bool"
        }
      ],
      "stateMutability": "nonpayable",
      "type": "function"
    },
    {
      "inputs": [
        {
          "internalType": "address",
          "name": "",
          "type": "address"
        }
      ],
      "name": "balanceOf",
      "outputs": [
        {
          "internalType": "uint256",
          "name": "",
          "type": "uint256"
        }
      ],
      "stateMutability": "view",
      "type": "function",
      "constant": true
    },
    {
      "inputs": [
        {
          "internalType": "address",
          "name": "from",
          "type": "address"
        },
        {
          "internalType": "uint256",
          "name": "amount",
          "type": "uint256"
        }
      ],
      "name": "burn",
      "outputs": [],
      "stateMutability": "nonpayable",
      "type": "function"
    },
    {
      "inputs": [],
      "name": "decimals",
      "outputs": [
        {
          "internalType": "uint8",
          "name": "",
          "type": "uint8"
        }
      ],
      "stateMutability": "view",
      "type": "function",
      "constant": true
    },
    {
      "inputs": [
        {
          "internalType": "address",
          "name": "to",
          "type": "address"
        },
        {
          "internalType": "uint256",
          "name": "amount",
          "type": "uint256"
        }
      ],
      "name": "mint",
      "outputs": [],
      "stateMutability": "nonpayable",
      "type": "function"
    },
    {
      "inputs": [],
      "name": "name",
      "outputs": [
        {
          "internalType": "string",
          "name": "",
          "type": "string"
        }
      ],
      "stateMutability": "view",
      "type": "function",
      "constant": true
    },
    {
      "inputs": [],
      "name": "symbol",
      "outputs": [
        {
          "internalType": "string",
          "name": "",
          "type": "string"
        }
      ],
      "stateMutability": "view",
      "type": "function",
      "constant": true
    },
    {
      "inputs": [],
      "name": "totalSupply",
      "outputs": [
        {
          "internalType": "uint256",
          "name": "",
          "type": "uint256"
        }
      ],
      "stateMutability": "view",
      "type": "function",
      "constant": true
    },
    {
      "inputs": [
        {
          "internalType": "address",
          "name": "recipient",
          "type": "address"
        },
        {
          "internalType": "uint256",
          "name": "amount",
          "type": "uint256"
        }
      ],
      "name": "transfer",
      "outputs": [
        {
          "internalType": "bool",
          "name": "",
          "type": "bool"
        }
      ],
      "stateMutability": "nonpayable",
      "type": "function"
    },
    {
      "inputs": [
        {
          "internalType": "address",
          "name": "sender",
          "type": "address"
        },
        {
          "internalType": "address",
          "name": "recipient",
          "type": "address"
        },
        {
          "internalType": "uint256",
          "name": "amount",
          "type": "uint256"
        }
      ],
      "name": "transferFrom",
      "outputs": [
        {
          "internalType": "bool",
          "name": "",
          "type": "bool"
        }
      ],
      "stateMutability": "nonpayable",
      "type": "function"
    }
  ],
  "bytecode": "0x60806040523480156200001157600080fd5b506040516200158b3803806200158b83398181016040528101906200003791906200042d565b828282826003908051906020019062000052929190620001a2565b5081600490805190602001906200006b929190620001a2565b5080600560006101000a81548160ff021916908360ff160217905550505050620000bb338260ff16600a620000a1919062000654565b6064620000af9190620006a5565b620000c460201b60201c565b505050620007f5565b80600160008473ffffffffffffffffffffffffffffffffffffffff1673ffffffffffffffffffffffffffffffffffffffff168152602001908152602001600020600082825462000115919062000706565b92505081905550806000808282546200012f919062000706565b925050819055508173ffffffffffffffffffffffffffffffffffffffff16600073ffffffffffffffffffffffffffffffffffffffff167fddf252ad1be2c89b69c2b068fc378daa952ba7f163c4a11628f55a4df523b3ef8360405162000196919062000774565b60405180910390a35050565b828054620001b090620007c0565b90600052602060002090601f016020900481019282620001d4576000855562000220565b82601f10620001ef57805160ff191683800117855562000220565b8280016001018555821562000220579182015b828111156200021f57825182559160200191906001019062000202565b5b5090506200022f919062000233565b5090565b5b808211156200024e57600081600090555060010162000234565b5090565b6000604051905090565b600080fd5b600080fd5b600080fd5b600080fd5b6000601f19601f8301169050919050565b7f4e487b7100000000000000000000000000000000000000000000000000000000600052604160045260246000fd5b620002bb8262000270565b810181811067ffffffffffffffff82111715620002dd57620002dc62000281565b5b80604052505050565b6000620002f262000252565b9050620003008282620002b0565b919050565b600067ffffffffffffffff82111562000323576200032262000281565b5b6200032e8262000270565b9050602081019050919050565b60005b838110156200035b5780820151818401526020810190506200033e565b838111156200036b576000848401525b50505050565b600062000388620003828462000305565b620002e6565b905082815260208101848484011115620003a757620003a66200026b565b5b620003b48482856200033b565b509392505050565b600082601f830112620003d457620003d362000266565b5b8151620003e684826020860162000371565b91505092915050565b600060ff82169050919050565b6200040781620003ef565b81146200041357600080fd5b50565b6000815190506200042781620003fc565b92915050565b6000806000606084860312156200044957620004486200025c565b5b600084015167ffffffffffffffff8111156200046a576200046962000261565b5b6200047886828701620003bc565b935050602084015167ffffffffffffffff8111156200049c576200049b62000261565b5b620004aa86828701620003bc565b9250506040620004bd8682870162000416565b9150509250925092565b7f4e487b7100000000000000000000000000000000000000000000000000000000600052601160045260246000fd5b60008160011c9050919050565b6000808291508390505b600185111562000555578086048111156200052d576200052c620004c7565b5b60018516156200053d5780820291505b80810290506200054d85620004f6565b94506200050d565b94509492505050565b60008262000570576001905062000643565b8162000580576000905062000643565b8160018114620005995760028114620005a457620005da565b600191505062000643565b60ff841115620005b957620005b8620004c7565b5b8360020a915084821115620005d357620005d2620004c7565b5b5062000643565b5060208310610133831016604e8410600b8410161715620006145782820a9050838111156200060e576200060d620004c7565b5b62000643565b62000623848484600162000503565b925090508184048111156200063d576200063c620004c7565b5b81810290505b9392505050565b6000819050919050565b600062000661826200064a565b91506200066e836200064a565b92506200069d7fffffffffffffffffffffffffffffffffffffffffffffffffffffffffffffffff84846200055e565b905092915050565b6000620006b2826200064a565b9150620006bf836200064a565b9250817fffffffffffffffffffffffffffffffffffffffffffffffffffffffffffffffff0483118215151615620006fb57620006fa620004c7565b5b828202905092915050565b600062000713826200064a565b915062000720836200064a565b9250827fffffffffffffffffffffffffffffffffffffffffffffffffffffffffffffffff03821115620007585762000757620004c7565b5b828201905092915050565b6200076e816200064a565b82525050565b60006020820190506200078b600083018462000763565b92915050565b7f4e487b7100000000000000000000000000000000000000000000000000000000600052602260045260246000fd5b60006002820490506001821680620007d957607f821691505b602082108103620007ef57620007ee62000791565b5b50919050565b610d8680620008056000396000f3fe608060405234801561001057600080fd5b50600436106100a95760003560e01c806340c10f191161007157806340c10f191461016857806370a082311461018457806395d89b41146101b45780639dc29fac146101d2578063a9059cbb146101ee578063dd62ed3e1461021e576100a9565b806306fdde03146100ae578063095ea7b3146100cc57806318160ddd146100fc57806323b872dd1461011a578063313ce5671461014a575b600080fd5b6100b661024e565b6040516100c391906109e5565b60405180910390f35b6100e660048036038101906100e19190610aa0565b6102dc565b6040516100f39190610afb565b60405180910390f35b6101046103ce565b6040516101119190610b25565b60405180910390f35b610134600480360381019061012f9190610b40565b6103d4565b6040516101419190610afb565b60405180910390f35b610152610585565b60405161015f9190610baf565b60405180910390f35b610182600480360381019061017d9190610aa0565b610598565b005b61019e60048036038101906101999190610bca565b6105a6565b6040516101ab9190610b25565b60405180910390f35b6101bc6105be565b6040516101c991906109e5565b60405180910390f35b6101ec60048036038101906101e79190610aa0565b61064c565b005b61020860048036038101906102039190610aa0565b61065a565b6040516102159190610afb565b60405180910390f35b61023860048036038101906102339190610bf7565b610777565b6040516102459190610b25565b60405180910390f35b6003805461025b90610c66565b80601f016020809104026020016040519081016040528092919081815260200182805461028790610c66565b80156102d45780601f106102a9576101008083540402835291602001916102d4565b820191906000526020600020905b8154815290600101906020018083116102b757829003601f168201915b505050505081565b600081600260003373ffffffffffffffffffffffffffffffffffffffff1673ffffffffffffffffffffffffffffffffffffffff16815260200190815260200160002060008573ffffffffffffffffffffffffffffffffffffffff1673ffffffffffffffffffffffffffffffffffffffff168152602001908152602001600020819055508273ffffffffffffffffffffffffffffffffffffffff163373ffffffffffffffffffffffffffffffffffffffff167f8c5be1e5ebec7d5bd14f71427d1e84f3dd0314c0f7b2291e5b200ac8c7c3b925846040516103bc9190610b25565b60405180910390a36001905092915050565b60005481565b600081600260008673ffffffffffffffffffffffffffffffffffffffff1673ffffffffffffffffffffffffffffffffffffffff16815260200190815260200160002060003373ffffffffffffffffffffffffffffffffffffffff1673ffffffffffffffffffffffffffffffffffffffff16815260200190815260200160002060008282546104629190610cc6565b9250508190555081600160008673ffffffffffffffffffffffffffffffffffffffff1673ffffffffffffffffffffffffffffffffffffffff16815260200190815260200160002060008282546104b89190610cc6565b9250508190555081600160008573ffffffffffffffffffffffffffffffffffffffff1673ffffffffffffffffffffffffffffffffffffffff168152602001908152602001600020600082825461050e9190610cfa565b925050819055508273ffffffffffffffffffffffffffffffffffffffff168473ffffffffffffffffffffffffffffffffffffffff167fddf252ad1be2c89b69c2b068fc378daa952ba7f163c4a11628f55a4df523b3ef846040516105729190610b25565b60405180910390a3600190509392505050565b600560009054906101000a900460ff1681565b6105a2828261079c565b5050565b60016020528060005260406000206000915090505481565b600480546105cb90610c66565b80601f01602080910402602001604051908101604052809291908181526020018280546105f790610c66565b80156106445780601f1061061957610100808354040283529160200191610644565b820191906000526020600020905b81548152906001019060200180831161062757829003601f168201915b505050505081565b6106568282610874565b5050565b600081600160003373ffffffffffffffffffffffffffffffffffffffff1673ffffffffffffffffffffffffffffffffffffffff16815260200190815260200160002060008282546106ab9190610cc6565b9250508190555081600160008573ffffffffffffffffffffffffffffffffffffffff1673ffffffffffffffffffffffffffffffffffffffff16815260200190815260200160002060008282546107019190610cfa565b925050819055508273ffffffffffffffffffffffffffffffffffffffff163373ffffffffffffffffffffffffffffffffffffffff167fddf252ad1be2c89b69c2b068fc378daa952ba7f163c4a11628f55a4df523b3ef846040516107659190610b25565b60405180910390a36001905092915050565b6002602052816000526040600020602052806000526040600020600091509150505481565b80600160008473ffffffffffffffffffffffffffffffffffffffff1673ffffffffffffffffffffffffffffffffffffffff16815260200190815260200160002060008282546107eb9190610cfa565b92505081905550806000808282546108039190610cfa565b925050819055508173ffffffffffffffffffffffffffffffffffffffff16600073ffffffffffffffffffffffffffffffffffffffff167fddf252ad1be2c89b69c2b068fc378daa952ba7f163c4a11628f55a4df523b3ef836040516108689190610b25565b60405180910390a35050565b80600160008473ffffffffffffffffffffffffffffffffffffffff1673ffffffffffffffffffffffffffffffffffffffff16815260200190815260200160002060008282546108c39190610cc6565b92505081905550806000808282546108db9190610cc6565b92505081905550600073ffffffffffffffffffffffffffffffffffffffff168273ffffffffffffffffffffffffffffffffffffffff167fddf252ad1be2c89b69c2b068fc378daa952ba7f163c4a11628f55a4df523b3ef836040516109409190610b25565b60405180910390a35050565b600081519050919050565b600082825260208201905092915050565b60005b8381101561098657808201518184015260208101905061096b565b83811115610995576000848401525b50505050565b6000601f19601f8301169050919050565b60006109b78261094c565b6109c18185610957565b93506109d1818560208601610968565b6109da8161099b565b840191505092915050565b600060208201905081810360008301526109ff81846109ac565b905092915050565b600080fd5b600073ffffffffffffffffffffffffffffffffffffffff82169050919050565b6000610a3782610a0c565b9050919050565b610a4781610a2c565b8114610a5257600080fd5b50565b600081359050610a6481610a3e565b92915050565b6000819050919050565b610a7d81610a6a565b8114610a8857600080fd5b50565b600081359050610a9a81610a74565b92915050565b60008060408385031215610ab757610ab6610a07565b5b6000610ac585828601610a55565b9250506020610ad685828601610a8b565b9150509250929050565b60008115159050919050565b610af581610ae0565b82525050565b6000602082019050610b106000830184610aec565b92915050565b610b1f81610a6a565b82525050565b6000602082019050610b3a6000830184610b16565b92915050565b600080600060608486031215610b5957610b58610a07565b5b6000610b6786828701610a55565b9350506020610b7886828701610a55565b9250506040610b8986828701610a8b565b9150509250925092565b600060ff82169050919050565b610ba981610b93565b82525050565b6000602082019050610bc46000830184610ba0565b92915050565b600060208284031215610be057610bdf610a07565b5b6000610bee84828501610a55565b91505092915050565b60008060408385031215610c0e57610c0d610a07565b5b6000610c1c85828601610a55565b9250506020610c2d85828601610a55565b9150509250929050565b7f4e487b7100000000000000000000000000000000000000000000000000000000600052602260045260246000fd5b60006002820490506001821680610c7e57607f821691505b602082108103610c9157610c90610c37565b5b50919050565b7f4e487b7100000000000000000000000000000000000000000000000000000000600052601160045260246000fd5b6000610cd182610a6a565b9150610cdc83610a6a565b925082821015610cef57610cee610c97565b5b828203905092915050565b6000610d0582610a6a565b9150610d1083610a6a565b9250827fffffffffffffffffffffffffffffffffffffffffffffffffffffffffffffffff03821115610d4557610d44610c97565b5b82820190509291505056fea264697066735822122014763523e571970cd47102500ba67977734032ec67ea15464a9414c792e2d4a264736f6c634300080d0033",
  "immutableReferences": {},
  "source": "// SPDX-License-Identifier: MIT\npragma solidity ^0.8.13;\n\nimport \"./ERC20.sol\";\n\ncontract MyToken is ERC20 {\n    constructor(string memory name, string memory symbol, uint8 decimals)\n        ERC20(name, symbol, decimals)\n    {\n        // Mint 100 tokens to msg.sender\n        // Similar to how\n        // 1 dollar = 100 cents\n        // 1 token = 1 * (10 ** decimals)\n        _mint(msg.sender, 100 * 10 ** uint256(decimals));\n    }\n}\n",
  "sourcePath": "/home/outsider/github/truffleSample/contracts/MyToken.sol",
  "compiler": {
    "name": "solc",
    "version": "0.8.13+commit.abaa5c0e.Emscripten.clang"
  },
  "schemaVersion": "3.4.16",
  "updatedAt": "2024-03-16T09:21:47.323Z",
  "networkType": "ethereum",
  "devdoc": {
    "kind": "dev",
    "methods": {},
    "version": 1
  },
  "userdoc": {
    "kind": "user",
    "methods": {},
    "version": 1
  }
}